{
	"_format": "hh-sol-artifact-1",
	"contractName": "FreelanceEscrow",
	"sourceName": "contracts/FreelanceEscrow.sol",
	"abi": [
		{
			"anonymous": false,
			"inputs": [
				{
					"indexed": false,
					"internalType": "uint256",
					"name": "jobId",
					"type": "uint256"
				},
				{
					"indexed": false,
					"internalType": "address",
					"name": "client",
					"type": "address"
				},
				{
					"indexed": false,
					"internalType": "address",
					"name": "freelancer",
					"type": "address"
				},
				{
					"indexed": false,
					"internalType": "uint256",
					"name": "amount",
					"type": "uint256"
				}
			],
			"name": "JobCreated",
			"type": "event"
		},
		{
			"stateMutability": "payable",
			"type": "fallback"
		},
		{
			"inputs": [
				{
					"internalType": "address",
					"name": "_freelancer",
					"type": "address"
				}
			],
			"name": "createJob",
			"outputs": [
				{
					"internalType": "uint256",
					"name": "jobId",
					"type": "uint256"
				}
			],
			"stateMutability": "payable",
			"type": "function"
		},
		{
			"inputs": [],
			"name": "jobCount",
			"outputs": [
				{
					"internalType": "uint256",
					"name": "",
					"type": "uint256"
				}
			],
			"stateMutability": "view",
			"type": "function"
		},
		{
			"inputs": [
				{
					"internalType": "uint256",
					"name": "",
					"type": "uint256"
				}
			],
			"name": "jobs",
			"outputs": [
				{
					"internalType": "address",
					"name": "client",
					"type": "address"
				},
				{
					"internalType": "address",
					"name": "freelancer",
					"type": "address"
				},
				{
					"internalType": "uint256",
					"name": "amount",
					"type": "uint256"
				},
				{
					"internalType": "bool",
					"name": "isCreated",
					"type": "bool"
				}
			],
			"stateMutability": "view",
			"type": "function"
		},
		{
			"stateMutability": "payable",
			"type": "receive"
		}
	],
	"bytecode": "0x6080604052348015600f57600080fd5b5061071a8061001f6000396000f3fe6080604052600436106100385760003560e01c8063180aedf3146100b35780634c5d8a0f146100f3578063d004e9851461011e57610078565b36610078576040517f08c379a000000000000000000000000000000000000000000000000000000000815260040161006f90610410565b60405180910390fd5b6040517f08c379a00000000000000000000000000000000000000000000000000000000081526004016100aa90610410565b60405180910390fd5b3480156100bf57600080fd5b506100da60048036038101906100d5919061046b565b61014e565b6040516100ea9493929190610503565b60405180910390f35b3480156100ff57600080fd5b506101086101cb565b6040516101159190610548565b60405180910390f35b6101386004803603810190610133919061058f565b6101d1565b6040516101459190610548565b60405180910390f35b60016020528060005260406000206000915090508060000160009054906101000a900473ffffffffffffffffffffffffffffffffffffffff16908060010160009054906101000a900473ffffffffffffffffffffffffffffffffffffffff16908060020154908060030160009054906101000a900460ff16905084565b60005481565b6000803411610215576040517f08c379a000000000000000000000000000000000000000000000000000000000815260040161020c90610608565b60405180910390fd5b60008081548092919061022790610657565b91905055905060405180608001604052803373ffffffffffffffffffffffffffffffffffffffff1681526020018373ffffffffffffffffffffffffffffffffffffffff168152602001348152602001600115158152506001600083815260200190815260200160002060008201518160000160006101000a81548173ffffffffffffffffffffffffffffffffffffffff021916908373ffffffffffffffffffffffffffffffffffffffff16021790555060208201518160010160006101000a81548173ffffffffffffffffffffffffffffffffffffffff021916908373ffffffffffffffffffffffffffffffffffffffff1602179055506040820151816002015560608201518160030160006101000a81548160ff0219169083151502179055509050507f8f4ee83cefe0dfb2f73fe6057bfa5b233fc43358bbb5f5606f444cbd4c5c4f8c81338434604051610380949392919061069f565b60405180910390a1919050565b600082825260208201905092915050565b7f446972656374207472616e7366657273206e6f7420616c6c6f7765642e20557360008201527f65206372656174654a6f6220746f2066756e64206a6f62732e00000000000000602082015250565b60006103fa60398361038d565b91506104058261039e565b604082019050919050565b60006020820190508181036000830152610429816103ed565b9050919050565b600080fd5b6000819050919050565b61044881610435565b811461045357600080fd5b50565b6000813590506104658161043f565b92915050565b60006020828403121561048157610480610430565b5b600061048f84828501610456565b91505092915050565b600073ffffffffffffffffffffffffffffffffffffffff82169050919050565b60006104c382610498565b9050919050565b6104d3816104b8565b82525050565b6104e281610435565b82525050565b60008115159050919050565b6104fd816104e8565b82525050565b600060808201905061051860008301876104ca565b61052560208301866104ca565b61053260408301856104d9565b61053f60608301846104f4565b95945050505050565b600060208201905061055d60008301846104d9565b92915050565b61056c816104b8565b811461057757600080fd5b50565b60008135905061058981610563565b92915050565b6000602082840312156105a5576105a4610430565b5b60006105b38482850161057a565b91505092915050565b7f4d7573742073656e642045544820746f2066756e6420746865206a6f622e0000600082015250565b60006105f2601e8361038d565b91506105fd826105bc565b602082019050919050565b60006020820190508181036000830152610621816105e5565b9050919050565b7f4e487b7100000000000000000000000000000000000000000000000000000000600052601160045260246000fd5b600061066282610435565b91507fffffffffffffffffffffffffffffffffffffffffffffffffffffffffffffffff820361069457610693610628565b5b600182019050919050565b60006080820190506106b460008301876104d9565b6106c160208301866104ca565b6106ce60408301856104ca565b6106db60608301846104d9565b9594505050505056fea264697066735822122049f6a7fc947dee40cb8f22058eda24ad0a19a26ec5a74aab5f4a7cb4587eff4f64736f6c634300081b0033",
	"linkReferences": {},
	"deployedLinkReferences": {}
}